{
  "contractName": "CollectionAggregator",
  "abi": [
    {
      "inputs": [],
      "stateMutability": "nonpayable",
      "type": "constructor"
    },
    {
      "anonymous": false,
      "inputs": [
        {
          "indexed": true,
          "internalType": "address",
          "name": "collection",
          "type": "address"
        },
        {
          "indexed": false,
          "internalType": "string",
          "name": "name",
          "type": "string"
        },
        {
          "indexed": false,
          "internalType": "string",
          "name": "symbol",
          "type": "string"
        }
      ],
      "name": "CollectionCreated",
      "type": "event"
    },
    {
      "anonymous": false,
      "inputs": [
        {
          "indexed": true,
          "internalType": "address",
          "name": "collection",
          "type": "address"
        },
        {
          "indexed": false,
          "internalType": "address",
          "name": "recipient",
          "type": "address"
        },
        {
          "indexed": false,
          "internalType": "uint256",
          "name": "tokenId",
          "type": "uint256"
        },
        {
          "indexed": false,
          "internalType": "string",
          "name": "tokenUri",
          "type": "string"
        }
      ],
      "name": "TokenMinted",
      "type": "event"
    },
    {
      "stateMutability": "payable",
      "type": "fallback",
      "payable": true
    },
    {
      "inputs": [
        {
          "internalType": "uint256",
          "name": "index",
          "type": "uint256"
        }
      ],
      "name": "collectionRegistryGetByIndex",
      "outputs": [
        {
          "internalType": "address",
          "name": "",
          "type": "address"
        }
      ],
      "stateMutability": "view",
      "type": "function",
      "constant": true
    },
    {
      "inputs": [],
      "name": "collectionRegistryGetLength",
      "outputs": [
        {
          "internalType": "uint256",
          "name": "",
          "type": "uint256"
        }
      ],
      "stateMutability": "view",
      "type": "function",
      "constant": true
    },
    {
      "inputs": [
        {
          "internalType": "address",
          "name": "collection",
          "type": "address"
        }
      ],
      "name": "collectionRegistryIsExist",
      "outputs": [
        {
          "internalType": "bool",
          "name": "",
          "type": "bool"
        }
      ],
      "stateMutability": "view",
      "type": "function",
      "constant": true
    },
    {
      "stateMutability": "payable",
      "type": "receive",
      "payable": true
    },
    {
      "inputs": [
        {
          "internalType": "string",
          "name": "name",
          "type": "string"
        },
        {
          "internalType": "string",
          "name": "symbol",
          "type": "string"
        }
      ],
      "name": "createCollection",
      "outputs": [],
      "stateMutability": "nonpayable",
      "type": "function"
    },
    {
      "inputs": [
        {
          "internalType": "address payable",
          "name": "collection",
          "type": "address"
        },
        {
          "internalType": "address",
          "name": "recipient",
          "type": "address"
        },
        {
          "internalType": "string",
          "name": "tokenUri",
          "type": "string"
        }
      ],
      "name": "mint",
      "outputs": [],
      "stateMutability": "nonpayable",
      "type": "function"
    }
  ],
  "bytecode": "0x608060405234801561001057600080fd5b506141f2806100206000396000f3fe608060405260043610620000555760003560e01c8063176b9b75146200005f578063221375a6146200008d5780636ae7685c14620000bb578063b913d7fb14620000ff578063d07ce631146200012f576200005d565b366200005d57005b005b3480156200006c57600080fd5b506200008b600480360381019062000085919062000817565b62000173565b005b3480156200009a57600080fd5b50620000b96004803603810190620000b3919062000946565b6200021c565b005b348015620000c857600080fd5b50620000e76004803603810190620000e19190620009c1565b620003c2565b604051620000f6919062000a10565b60405180910390f35b3480156200010c57600080fd5b5062000117620003e1565b60405162000126919062000a48565b60405180910390f35b3480156200013c57600080fd5b506200015b600480360381019062000155919062000a96565b620003f4565b6040516200016a919062000ad9565b60405180910390f35b6000308383604051620001869062000677565b620001949392919062000b7f565b604051809103906000f080158015620001b1573d6000803e3d6000fd5b5090506000819050620001c48162000413565b8073ffffffffffffffffffffffffffffffffffffffff167f3454b57f2dca4f5a54e8358d096ac9d1a0d2dab98991ddb89ff9ea174626061785856040516200020e92919062000bca565b60405180910390a250505050565b600073ffffffffffffffffffffffffffffffffffffffff168273ffffffffffffffffffffffffffffffffffffffff16036200028e576040517f08c379a0000000000000000000000000000000000000000000000000000000008152600401620002859062000c7b565b60405180910390fd5b6200029983620003c2565b620002db576040517f08c379a0000000000000000000000000000000000000000000000000000000008152600401620002d29062000ced565b60405180910390fd5b600083905060008173ffffffffffffffffffffffffffffffffffffffff1663d0def52185856040518363ffffffff1660e01b81526004016200031f92919062000d0f565b6020604051808303816000875af11580156200033f573d6000803e3d6000fd5b505050506040513d601f19601f8201168201806040525081019062000365919062000d5a565b90508473ffffffffffffffffffffffffffffffffffffffff167fc9fee7cd4889f66f10ff8117316524260a5242e88e25e0656dfb3f4196a21917858386604051620003b39392919062000d8c565b60405180910390a25050505050565b6000620003da8260006200042c90919063ffffffff16565b9050919050565b6000620003ef600062000481565b905090565b60006200040c8260006200049290919063ffffffff16565b9050919050565b620004298160006200052c90919063ffffffff16565b50565b6000620004798360000160008473ffffffffffffffffffffffffffffffffffffffff1673ffffffffffffffffffffffffffffffffffffffff16815260200190815260200160002062000615565b905092915050565b600081600101805490509050919050565b600082600101805490508210620004e0576040517f08c379a0000000000000000000000000000000000000000000000000000000008152600401620004d79062000e20565b60405180910390fd5b826001018281548110620004f957620004f862000e42565b5b9060005260206000200160009054906101000a900473ffffffffffffffffffffffffffffffffffffffff16905092915050565b6200053e826001018054905062000640565b8260000160008373ffffffffffffffffffffffffffffffffffffffff1673ffffffffffffffffffffffffffffffffffffffff1681526020019081526020016000206000820151816000015560208201518160010160006101000a81548160ff02191690831515021790555090505081600101819080600181540180825580915050600190039060005260206000200160009091909190916101000a81548173ffffffffffffffffffffffffffffffffffffffff021916908373ffffffffffffffffffffffffffffffffffffffff1602179055505050565b60006200062162000672565b15158260010160009054906101000a900460ff16151514159050919050565b6200064a62000685565b60405180604001604052808381526020016200066562000672565b1515158152509050919050565b600090565b61334b8062000e7283390190565b6040518060400160405280600081526020016000151581525090565b6000604051905090565b600080fd5b600080fd5b600080fd5b600080fd5b6000601f19601f8301169050919050565b7f4e487b7100000000000000000000000000000000000000000000000000000000600052604160045260246000fd5b6200070a82620006bf565b810181811067ffffffffffffffff821117156200072c576200072b620006d0565b5b80604052505050565b600062000741620006a1565b90506200074f8282620006ff565b919050565b600067ffffffffffffffff821115620007725762000771620006d0565b5b6200077d82620006bf565b9050602081019050919050565b82818337600083830152505050565b6000620007b0620007aa8462000754565b62000735565b905082815260208101848484011115620007cf57620007ce620006ba565b5b620007dc8482856200078a565b509392505050565b600082601f830112620007fc57620007fb620006b5565b5b81356200080e84826020860162000799565b91505092915050565b60008060408385031215620008315762000830620006ab565b5b600083013567ffffffffffffffff811115620008525762000851620006b0565b5b6200086085828601620007e4565b925050602083013567ffffffffffffffff811115620008845762000883620006b0565b5b6200089285828601620007e4565b9150509250929050565b600073ffffffffffffffffffffffffffffffffffffffff82169050919050565b6000620008c9826200089c565b9050919050565b620008db81620008bc565b8114620008e757600080fd5b50565b600081359050620008fb81620008d0565b92915050565b60006200090e826200089c565b9050919050565b620009208162000901565b81146200092c57600080fd5b50565b600081359050620009408162000915565b92915050565b600080600060608486031215620009625762000961620006ab565b5b60006200097286828701620008ea565b935050602062000985868287016200092f565b925050604084013567ffffffffffffffff811115620009a957620009a8620006b0565b5b620009b786828701620007e4565b9150509250925092565b600060208284031215620009da57620009d9620006ab565b5b6000620009ea848285016200092f565b91505092915050565b60008115159050919050565b62000a0a81620009f3565b82525050565b600060208201905062000a276000830184620009ff565b92915050565b6000819050919050565b62000a428162000a2d565b82525050565b600060208201905062000a5f600083018462000a37565b92915050565b62000a708162000a2d565b811462000a7c57600080fd5b50565b60008135905062000a908162000a65565b92915050565b60006020828403121562000aaf5762000aae620006ab565b5b600062000abf8482850162000a7f565b91505092915050565b62000ad38162000901565b82525050565b600060208201905062000af0600083018462000ac8565b92915050565b600081519050919050565b600082825260208201905092915050565b60005b8381101562000b3257808201518184015260208101905062000b15565b60008484015250505050565b600062000b4b8262000af6565b62000b57818562000b01565b935062000b6981856020860162000b12565b62000b7481620006bf565b840191505092915050565b600060608201905062000b96600083018662000ac8565b818103602083015262000baa818562000b3e565b9050818103604083015262000bc0818462000b3e565b9050949350505050565b6000604082019050818103600083015262000be6818562000b3e565b9050818103602083015262000bfc818462000b3e565b90509392505050565b7f4552433732313a2061646472657373207a65726f206973206e6f74206120766160008201527f6c696420726563697069656e742e000000000000000000000000000000000000602082015250565b600062000c63602e8362000b01565b915062000c708262000c05565b604082019050919050565b6000602082019050818103600083015262000c968162000c54565b9050919050565b7f436f6c6c656374696f6e20646f6573206e6f742065786973742e000000000000600082015250565b600062000cd5601a8362000b01565b915062000ce28262000c9d565b602082019050919050565b6000602082019050818103600083015262000d088162000cc6565b9050919050565b600060408201905062000d26600083018562000ac8565b818103602083015262000d3a818462000b3e565b90509392505050565b60008151905062000d548162000a65565b92915050565b60006020828403121562000d735762000d72620006ab565b5b600062000d838482850162000d43565b91505092915050565b600060608201905062000da3600083018662000ac8565b62000db2602083018562000a37565b818103604083015262000dc6818462000b3e565b9050949350505050565b7f42616420696e6465782e00000000000000000000000000000000000000000000600082015250565b600062000e08600a8362000b01565b915062000e158262000dd0565b602082019050919050565b6000602082019050818103600083015262000e3b8162000df9565b9050919050565b7f4e487b7100000000000000000000000000000000000000000000000000000000600052603260045260246000fdfe60806040523480156200001157600080fd5b506040516200334b3803806200334b8339818101604052810190620000379190620002a1565b818181600090816200004a919062000586565b5080600190816200005c919062000586565b50505082600860006101000a81548173ffffffffffffffffffffffffffffffffffffffff021916908373ffffffffffffffffffffffffffffffffffffffff1602179055505050506200066d565b6000604051905090565b600080fd5b600080fd5b600073ffffffffffffffffffffffffffffffffffffffff82169050919050565b6000620000ea82620000bd565b9050919050565b620000fc81620000dd565b81146200010857600080fd5b50565b6000815190506200011c81620000f1565b92915050565b600080fd5b600080fd5b6000601f19601f8301169050919050565b7f4e487b7100000000000000000000000000000000000000000000000000000000600052604160045260246000fd5b62000177826200012c565b810181811067ffffffffffffffff821117156200019957620001986200013d565b5b80604052505050565b6000620001ae620000a9565b9050620001bc82826200016c565b919050565b600067ffffffffffffffff821115620001df57620001de6200013d565b5b620001ea826200012c565b9050602081019050919050565b60005b8381101562000217578082015181840152602081019050620001fa565b60008484015250505050565b60006200023a6200023484620001c1565b620001a2565b90508281526020810184848401111562000259576200025862000127565b5b62000266848285620001f7565b509392505050565b600082601f83011262000286576200028562000122565b5b81516200029884826020860162000223565b91505092915050565b600080600060608486031215620002bd57620002bc620000b3565b5b6000620002cd868287016200010b565b935050602084015167ffffffffffffffff811115620002f157620002f0620000b8565b5b620002ff868287016200026e565b925050604084015167ffffffffffffffff811115620003235762000322620000b8565b5b62000331868287016200026e565b9150509250925092565b600081519050919050565b7f4e487b7100000000000000000000000000000000000000000000000000000000600052602260045260246000fd5b600060028204905060018216806200038e57607f821691505b602082108103620003a457620003a362000346565b5b50919050565b60008190508160005260206000209050919050565b60006020601f8301049050919050565b600082821b905092915050565b6000600883026200040e7fffffffffffffffffffffffffffffffffffffffffffffffffffffffffffffffff82620003cf565b6200041a8683620003cf565b95508019841693508086168417925050509392505050565b6000819050919050565b6000819050919050565b600062000467620004616200045b8462000432565b6200043c565b62000432565b9050919050565b6000819050919050565b620004838362000446565b6200049b62000492826200046e565b848454620003dc565b825550505050565b600090565b620004b2620004a3565b620004bf81848462000478565b505050565b5b81811015620004e757620004db600082620004a8565b600181019050620004c5565b5050565b601f82111562000536576200050081620003aa565b6200050b84620003bf565b810160208510156200051b578190505b620005336200052a85620003bf565b830182620004c4565b50505b505050565b600082821c905092915050565b60006200055b600019846008026200053b565b1980831691505092915050565b600062000576838362000548565b9150826002028217905092915050565b62000591826200033b565b67ffffffffffffffff811115620005ad57620005ac6200013d565b5b620005b9825462000375565b620005c6828285620004eb565b600060209050601f831160018114620005fe5760008415620005e9578287015190505b620005f5858262000568565b86555062000665565b601f1984166200060e86620003aa565b60005b82811015620006385784890151825560018201915060208501945060208101905062000611565b8683101562000658578489015162000654601f89168262000548565b8355505b6001600288020188555050505b505050505050565b612cce806200067d6000396000f3fe6080604052600436106100ec5760003560e01c80636352211e1161008a578063b88d4fde11610059578063b88d4fde1461030e578063c87b56dd14610337578063d0def52114610374578063e985e9c5146103b1576100f3565b80636352211e1461024057806370a082311461027d57806395d89b41146102ba578063a22cb465146102e5576100f3565b8063095ea7b3116100c6578063095ea7b31461019a57806323b872dd146101c357806342842e0e146101ec57806363065ffd14610215576100f3565b806301ffc9a7146100f557806306fdde0314610132578063081812fc1461015d576100f3565b366100f357005b005b34801561010157600080fd5b5061011c60048036038101906101179190611b51565b6103ee565b6040516101299190611b99565b60405180910390f35b34801561013e57600080fd5b506101476104d0565b6040516101549190611c44565b60405180910390f35b34801561016957600080fd5b50610184600480360381019061017f9190611c9c565b610562565b6040516101919190611d0a565b60405180910390f35b3480156101a657600080fd5b506101c160048036038101906101bc9190611d51565b6105a8565b005b3480156101cf57600080fd5b506101ea60048036038101906101e59190611d91565b6106bf565b005b3480156101f857600080fd5b50610213600480360381019061020e9190611d91565b61071f565b005b34801561022157600080fd5b5061022a61073f565b6040516102379190611d0a565b60405180910390f35b34801561024c57600080fd5b5061026760048036038101906102629190611c9c565b610769565b6040516102749190611d0a565b60405180910390f35b34801561028957600080fd5b506102a4600480360381019061029f9190611de4565b6107ef565b6040516102b19190611e20565b60405180910390f35b3480156102c657600080fd5b506102cf6108a6565b6040516102dc9190611c44565b60405180910390f35b3480156102f157600080fd5b5061030c60048036038101906103079190611e67565b610938565b005b34801561031a57600080fd5b5061033560048036038101906103309190611fdc565b61094e565b005b34801561034357600080fd5b5061035e60048036038101906103599190611c9c565b6109b0565b60405161036b9190611c44565b60405180910390f35b34801561038057600080fd5b5061039b60048036038101906103969190612100565b610ac2565b6040516103a89190611e20565b60405180910390f35b3480156103bd57600080fd5b506103d860048036038101906103d3919061215c565b610b8a565b6040516103e59190611b99565b60405180910390f35b60007f80ac58cd000000000000000000000000000000000000000000000000000000007bffffffffffffffffffffffffffffffffffffffffffffffffffffffff1916827bffffffffffffffffffffffffffffffffffffffffffffffffffffffff191614806104b957507f5b5e139f000000000000000000000000000000000000000000000000000000007bffffffffffffffffffffffffffffffffffffffffffffffffffffffff1916827bffffffffffffffffffffffffffffffffffffffffffffffffffffffff1916145b806104c957506104c882610c1e565b5b9050919050565b6060600080546104df906121cb565b80601f016020809104026020016040519081016040528092919081815260200182805461050b906121cb565b80156105585780601f1061052d57610100808354040283529160200191610558565b820191906000526020600020905b81548152906001019060200180831161053b57829003601f168201915b5050505050905090565b600061056d82610c88565b6004600083815260200190815260200160002060009054906101000a900473ffffffffffffffffffffffffffffffffffffffff169050919050565b60006105b382610769565b90508073ffffffffffffffffffffffffffffffffffffffff168373ffffffffffffffffffffffffffffffffffffffff1603610623576040517f08c379a000000000000000000000000000000000000000000000000000000000815260040161061a9061226e565b60405180910390fd5b8073ffffffffffffffffffffffffffffffffffffffff16610642610cd3565b73ffffffffffffffffffffffffffffffffffffffff16148061067157506106708161066b610cd3565b610b8a565b5b6106b0576040517f08c379a00000000000000000000000000000000000000000000000000000000081526004016106a790612300565b60405180910390fd5b6106ba8383610cdb565b505050565b6106d06106ca610cd3565b82610d94565b61070f576040517f08c379a000000000000000000000000000000000000000000000000000000000815260040161070690612392565b60405180910390fd5b61071a838383610e29565b505050565b61073a8383836040518060200160405280600081525061094e565b505050565b6000600860009054906101000a900473ffffffffffffffffffffffffffffffffffffffff16905090565b60008061077583611122565b9050600073ffffffffffffffffffffffffffffffffffffffff168173ffffffffffffffffffffffffffffffffffffffff16036107e6576040517f08c379a00000000000000000000000000000000000000000000000000000000081526004016107dd906123fe565b60405180910390fd5b80915050919050565b60008073ffffffffffffffffffffffffffffffffffffffff168273ffffffffffffffffffffffffffffffffffffffff160361085f576040517f08c379a000000000000000000000000000000000000000000000000000000000815260040161085690612490565b60405180910390fd5b600360008373ffffffffffffffffffffffffffffffffffffffff1673ffffffffffffffffffffffffffffffffffffffff168152602001908152602001600020549050919050565b6060600180546108b5906121cb565b80601f01602080910402602001604051908101604052809291908181526020018280546108e1906121cb565b801561092e5780601f106109035761010080835404028352916020019161092e565b820191906000526020600020905b81548152906001019060200180831161091157829003601f168201915b5050505050905090565b61094a610943610cd3565b838361115f565b5050565b61095f610959610cd3565b83610d94565b61099e576040517f08c379a000000000000000000000000000000000000000000000000000000000815260040161099590612392565b60405180910390fd5b6109aa848484846112cb565b50505050565b60606109bb82610c88565b60006006600084815260200190815260200160002080546109db906121cb565b80601f0160208091040260200160405190810160405280929190818152602001828054610a07906121cb565b8015610a545780601f10610a2957610100808354040283529160200191610a54565b820191906000526020600020905b815481529060010190602001808311610a3757829003601f168201915b505050505090506000610a65611327565b90506000815103610a7a578192505050610abd565b600082511115610aaf578082604051602001610a979291906124ec565b60405160208183030381529060405292505050610abd565b610ab88461133e565b925050505b919050565b6000600860009054906101000a900473ffffffffffffffffffffffffffffffffffffffff1673ffffffffffffffffffffffffffffffffffffffff163373ffffffffffffffffffffffffffffffffffffffff1614610b54576040517f08c379a0000000000000000000000000000000000000000000000000000000008152600401610b4b9061255c565b60405180910390fd5b6000610b6060076113a6565b9050610b6c84826113b4565b610b7681846113d2565b610b80600761143f565b8091505092915050565b6000600560008473ffffffffffffffffffffffffffffffffffffffff1673ffffffffffffffffffffffffffffffffffffffff16815260200190815260200160002060008373ffffffffffffffffffffffffffffffffffffffff1673ffffffffffffffffffffffffffffffffffffffff16815260200190815260200160002060009054906101000a900460ff16905092915050565b60007f01ffc9a7000000000000000000000000000000000000000000000000000000007bffffffffffffffffffffffffffffffffffffffffffffffffffffffff1916827bffffffffffffffffffffffffffffffffffffffffffffffffffffffff1916149050919050565b610c9181611455565b610cd0576040517f08c379a0000000000000000000000000000000000000000000000000000000008152600401610cc7906123fe565b60405180910390fd5b50565b600033905090565b816004600083815260200190815260200160002060006101000a81548173ffffffffffffffffffffffffffffffffffffffff021916908373ffffffffffffffffffffffffffffffffffffffff160217905550808273ffffffffffffffffffffffffffffffffffffffff16610d4e83610769565b73ffffffffffffffffffffffffffffffffffffffff167f8c5be1e5ebec7d5bd14f71427d1e84f3dd0314c0f7b2291e5b200ac8c7c3b92560405160405180910390a45050565b600080610da083610769565b90508073ffffffffffffffffffffffffffffffffffffffff168473ffffffffffffffffffffffffffffffffffffffff161480610de25750610de18185610b8a565b5b80610e2057508373ffffffffffffffffffffffffffffffffffffffff16610e0884610562565b73ffffffffffffffffffffffffffffffffffffffff16145b91505092915050565b8273ffffffffffffffffffffffffffffffffffffffff16610e4982610769565b73ffffffffffffffffffffffffffffffffffffffff1614610e9f576040517f08c379a0000000000000000000000000000000000000000000000000000000008152600401610e96906125ee565b60405180910390fd5b600073ffffffffffffffffffffffffffffffffffffffff168273ffffffffffffffffffffffffffffffffffffffff1603610f0e576040517f08c379a0000000000000000000000000000000000000000000000000000000008152600401610f0590612680565b60405180910390fd5b610f1b8383836001611496565b8273ffffffffffffffffffffffffffffffffffffffff16610f3b82610769565b73ffffffffffffffffffffffffffffffffffffffff1614610f91576040517f08c379a0000000000000000000000000000000000000000000000000000000008152600401610f88906125ee565b60405180910390fd5b6004600082815260200190815260200160002060006101000a81549073ffffffffffffffffffffffffffffffffffffffff02191690556001600360008573ffffffffffffffffffffffffffffffffffffffff1673ffffffffffffffffffffffffffffffffffffffff168152602001908152602001600020600082825403925050819055506001600360008473ffffffffffffffffffffffffffffffffffffffff1673ffffffffffffffffffffffffffffffffffffffff16815260200190815260200160002060008282540192505081905550816002600083815260200190815260200160002060006101000a81548173ffffffffffffffffffffffffffffffffffffffff021916908373ffffffffffffffffffffffffffffffffffffffff160217905550808273ffffffffffffffffffffffffffffffffffffffff168473ffffffffffffffffffffffffffffffffffffffff167fddf252ad1be2c89b69c2b068fc378daa952ba7f163c4a11628f55a4df523b3ef60405160405180910390a461111d838383600161149c565b505050565b60006002600083815260200190815260200160002060009054906101000a900473ffffffffffffffffffffffffffffffffffffffff169050919050565b8173ffffffffffffffffffffffffffffffffffffffff168373ffffffffffffffffffffffffffffffffffffffff16036111cd576040517f08c379a00000000000000000000000000000000000000000000000000000000081526004016111c4906126ec565b60405180910390fd5b80600560008573ffffffffffffffffffffffffffffffffffffffff1673ffffffffffffffffffffffffffffffffffffffff16815260200190815260200160002060008473ffffffffffffffffffffffffffffffffffffffff1673ffffffffffffffffffffffffffffffffffffffff16815260200190815260200160002060006101000a81548160ff0219169083151502179055508173ffffffffffffffffffffffffffffffffffffffff168373ffffffffffffffffffffffffffffffffffffffff167f17307eab39ab6107e8899845ad3d59bd9653f200f220920489ca2b5937696c31836040516112be9190611b99565b60405180910390a3505050565b6112d6848484610e29565b6112e2848484846114a2565b611321576040517f08c379a00000000000000000000000000000000000000000000000000000000081526004016113189061277e565b60405180910390fd5b50505050565b606060405180602001604052806000815250905090565b606061134982610c88565b6000611353611327565b90506000815111611373576040518060200160405280600081525061139e565b8061137d84611629565b60405160200161138e9291906124ec565b6040516020818303038152906040525b915050919050565b600081600001549050919050565b6113ce8282604051806020016040528060008152506116f7565b5050565b6113db82611455565b61141a576040517f08c379a000000000000000000000000000000000000000000000000000000000815260040161141190612810565b60405180910390fd5b8060066000848152602001908152602001600020908161143a91906129dc565b505050565b6001816000016000828254019250508190555050565b60008073ffffffffffffffffffffffffffffffffffffffff1661147783611122565b73ffffffffffffffffffffffffffffffffffffffff1614159050919050565b50505050565b50505050565b60006114c38473ffffffffffffffffffffffffffffffffffffffff16611752565b1561161c578373ffffffffffffffffffffffffffffffffffffffff1663150b7a026114ec610cd3565b8786866040518563ffffffff1660e01b815260040161150e9493929190612b03565b6020604051808303816000875af192505050801561154a57506040513d601f19601f820116820180604052508101906115479190612b64565b60015b6115cc573d806000811461157a576040519150601f19603f3d011682016040523d82523d6000602084013e61157f565b606091505b5060008151036115c4576040517f08c379a00000000000000000000000000000000000000000000000000000000081526004016115bb9061277e565b60405180910390fd5b805181602001fd5b63150b7a0260e01b7bffffffffffffffffffffffffffffffffffffffffffffffffffffffff1916817bffffffffffffffffffffffffffffffffffffffffffffffffffffffff191614915050611621565b600190505b949350505050565b60606000600161163884611775565b01905060008167ffffffffffffffff81111561165757611656611eb1565b5b6040519080825280601f01601f1916602001820160405280156116895781602001600182028036833780820191505090505b509050600082602001820190505b6001156116ec578080600190039150507f3031323334353637383961626364656600000000000000000000000000000000600a86061a8153600a85816116e0576116df612b91565b5b04945060008503611697575b819350505050919050565b61170183836118c8565b61170e60008484846114a2565b61174d576040517f08c379a00000000000000000000000000000000000000000000000000000000081526004016117449061277e565b60405180910390fd5b505050565b6000808273ffffffffffffffffffffffffffffffffffffffff163b119050919050565b600080600090507a184f03e93ff9f4daa797ed6e38ed64bf6a1f01000000000000000083106117d3577a184f03e93ff9f4daa797ed6e38ed64bf6a1f01000000000000000083816117c9576117c8612b91565b5b0492506040810190505b6d04ee2d6d415b85acef81000000008310611810576d04ee2d6d415b85acef8100000000838161180657611805612b91565b5b0492506020810190505b662386f26fc10000831061183f57662386f26fc10000838161183557611834612b91565b5b0492506010810190505b6305f5e1008310611868576305f5e100838161185e5761185d612b91565b5b0492506008810190505b612710831061188d57612710838161188357611882612b91565b5b0492506004810190505b606483106118b057606483816118a6576118a5612b91565b5b0492506002810190505b600a83106118bf576001810190505b80915050919050565b600073ffffffffffffffffffffffffffffffffffffffff168273ffffffffffffffffffffffffffffffffffffffff1603611937576040517f08c379a000000000000000000000000000000000000000000000000000000000815260040161192e90612c0c565b60405180910390fd5b61194081611455565b15611980576040517f08c379a000000000000000000000000000000000000000000000000000000000815260040161197790612c78565b60405180910390fd5b61198e600083836001611496565b61199781611455565b156119d7576040517f08c379a00000000000000000000000000000000000000000000000000000000081526004016119ce90612c78565b60405180910390fd5b6001600360008473ffffffffffffffffffffffffffffffffffffffff1673ffffffffffffffffffffffffffffffffffffffff16815260200190815260200160002060008282540192505081905550816002600083815260200190815260200160002060006101000a81548173ffffffffffffffffffffffffffffffffffffffff021916908373ffffffffffffffffffffffffffffffffffffffff160217905550808273ffffffffffffffffffffffffffffffffffffffff16600073ffffffffffffffffffffffffffffffffffffffff167fddf252ad1be2c89b69c2b068fc378daa952ba7f163c4a11628f55a4df523b3ef60405160405180910390a4611ae160008383600161149c565b5050565b6000604051905090565b600080fd5b600080fd5b60007fffffffff0000000000000000000000000000000000000000000000000000000082169050919050565b611b2e81611af9565b8114611b3957600080fd5b50565b600081359050611b4b81611b25565b92915050565b600060208284031215611b6757611b66611aef565b5b6000611b7584828501611b3c565b91505092915050565b60008115159050919050565b611b9381611b7e565b82525050565b6000602082019050611bae6000830184611b8a565b92915050565b600081519050919050565b600082825260208201905092915050565b60005b83811015611bee578082015181840152602081019050611bd3565b60008484015250505050565b6000601f19601f8301169050919050565b6000611c1682611bb4565b611c208185611bbf565b9350611c30818560208601611bd0565b611c3981611bfa565b840191505092915050565b60006020820190508181036000830152611c5e8184611c0b565b905092915050565b6000819050919050565b611c7981611c66565b8114611c8457600080fd5b50565b600081359050611c9681611c70565b92915050565b600060208284031215611cb257611cb1611aef565b5b6000611cc084828501611c87565b91505092915050565b600073ffffffffffffffffffffffffffffffffffffffff82169050919050565b6000611cf482611cc9565b9050919050565b611d0481611ce9565b82525050565b6000602082019050611d1f6000830184611cfb565b92915050565b611d2e81611ce9565b8114611d3957600080fd5b50565b600081359050611d4b81611d25565b92915050565b60008060408385031215611d6857611d67611aef565b5b6000611d7685828601611d3c565b9250506020611d8785828601611c87565b9150509250929050565b600080600060608486031215611daa57611da9611aef565b5b6000611db886828701611d3c565b9350506020611dc986828701611d3c565b9250506040611dda86828701611c87565b9150509250925092565b600060208284031215611dfa57611df9611aef565b5b6000611e0884828501611d3c565b91505092915050565b611e1a81611c66565b82525050565b6000602082019050611e356000830184611e11565b92915050565b611e4481611b7e565b8114611e4f57600080fd5b50565b600081359050611e6181611e3b565b92915050565b60008060408385031215611e7e57611e7d611aef565b5b6000611e8c85828601611d3c565b9250506020611e9d85828601611e52565b9150509250929050565b600080fd5b600080fd5b7f4e487b7100000000000000000000000000000000000000000000000000000000600052604160045260246000fd5b611ee982611bfa565b810181811067ffffffffffffffff82111715611f0857611f07611eb1565b5b80604052505050565b6000611f1b611ae5565b9050611f278282611ee0565b919050565b600067ffffffffffffffff821115611f4757611f46611eb1565b5b611f5082611bfa565b9050602081019050919050565b82818337600083830152505050565b6000611f7f611f7a84611f2c565b611f11565b905082815260208101848484011115611f9b57611f9a611eac565b5b611fa6848285611f5d565b509392505050565b600082601f830112611fc357611fc2611ea7565b5b8135611fd3848260208601611f6c565b91505092915050565b60008060008060808587031215611ff657611ff5611aef565b5b600061200487828801611d3c565b945050602061201587828801611d3c565b935050604061202687828801611c87565b925050606085013567ffffffffffffffff81111561204757612046611af4565b5b61205387828801611fae565b91505092959194509250565b600067ffffffffffffffff82111561207a57612079611eb1565b5b61208382611bfa565b9050602081019050919050565b60006120a361209e8461205f565b611f11565b9050828152602081018484840111156120bf576120be611eac565b5b6120ca848285611f5d565b509392505050565b600082601f8301126120e7576120e6611ea7565b5b81356120f7848260208601612090565b91505092915050565b6000806040838503121561211757612116611aef565b5b600061212585828601611d3c565b925050602083013567ffffffffffffffff81111561214657612145611af4565b5b612152858286016120d2565b9150509250929050565b6000806040838503121561217357612172611aef565b5b600061218185828601611d3c565b925050602061219285828601611d3c565b9150509250929050565b7f4e487b7100000000000000000000000000000000000000000000000000000000600052602260045260246000fd5b600060028204905060018216806121e357607f821691505b6020821081036121f6576121f561219c565b5b50919050565b7f4552433732313a20617070726f76616c20746f2063757272656e74206f776e6560008201527f7200000000000000000000000000000000000000000000000000000000000000602082015250565b6000612258602183611bbf565b9150612263826121fc565b604082019050919050565b600060208201905081810360008301526122878161224b565b9050919050565b7f4552433732313a20617070726f76652063616c6c6572206973206e6f7420746f60008201527f6b656e206f776e6572206f7220617070726f76656420666f7220616c6c000000602082015250565b60006122ea603d83611bbf565b91506122f58261228e565b604082019050919050565b60006020820190508181036000830152612319816122dd565b9050919050565b7f4552433732313a2063616c6c6572206973206e6f7420746f6b656e206f776e6560008201527f72206f7220617070726f76656400000000000000000000000000000000000000602082015250565b600061237c602d83611bbf565b915061238782612320565b604082019050919050565b600060208201905081810360008301526123ab8161236f565b9050919050565b7f4552433732313a20696e76616c696420746f6b656e2049440000000000000000600082015250565b60006123e8601883611bbf565b91506123f3826123b2565b602082019050919050565b60006020820190508181036000830152612417816123db565b9050919050565b7f4552433732313a2061646472657373207a65726f206973206e6f74206120766160008201527f6c6964206f776e65720000000000000000000000000000000000000000000000602082015250565b600061247a602983611bbf565b91506124858261241e565b604082019050919050565b600060208201905081810360008301526124a98161246d565b9050919050565b600081905092915050565b60006124c682611bb4565b6124d081856124b0565b93506124e0818560208601611bd0565b80840191505092915050565b60006124f882856124bb565b915061250482846124bb565b91508190509392505050565b7f4261642063616c6c2e0000000000000000000000000000000000000000000000600082015250565b6000612546600983611bbf565b915061255182612510565b602082019050919050565b6000602082019050818103600083015261257581612539565b9050919050565b7f4552433732313a207472616e736665722066726f6d20696e636f72726563742060008201527f6f776e6572000000000000000000000000000000000000000000000000000000602082015250565b60006125d8602583611bbf565b91506125e38261257c565b604082019050919050565b60006020820190508181036000830152612607816125cb565b9050919050565b7f4552433732313a207472616e7366657220746f20746865207a65726f2061646460008201527f7265737300000000000000000000000000000000000000000000000000000000602082015250565b600061266a602483611bbf565b91506126758261260e565b604082019050919050565b600060208201905081810360008301526126998161265d565b9050919050565b7f4552433732313a20617070726f766520746f2063616c6c657200000000000000600082015250565b60006126d6601983611bbf565b91506126e1826126a0565b602082019050919050565b60006020820190508181036000830152612705816126c9565b9050919050565b7f4552433732313a207472616e7366657220746f206e6f6e20455243373231526560008201527f63656976657220696d706c656d656e7465720000000000000000000000000000602082015250565b6000612768603283611bbf565b91506127738261270c565b604082019050919050565b600060208201905081810360008301526127978161275b565b9050919050565b7f45524337323155524953746f726167653a2055524920736574206f66206e6f6e60008201527f6578697374656e7420746f6b656e000000000000000000000000000000000000602082015250565b60006127fa602e83611bbf565b91506128058261279e565b604082019050919050565b60006020820190508181036000830152612829816127ed565b9050919050565b60008190508160005260206000209050919050565b60006020601f8301049050919050565b600082821b905092915050565b6000600883026128927fffffffffffffffffffffffffffffffffffffffffffffffffffffffffffffffff82612855565b61289c8683612855565b95508019841693508086168417925050509392505050565b6000819050919050565b60006128d96128d46128cf84611c66565b6128b4565b611c66565b9050919050565b6000819050919050565b6128f3836128be565b6129076128ff826128e0565b848454612862565b825550505050565b600090565b61291c61290f565b6129278184846128ea565b505050565b5b8181101561294b57612940600082612914565b60018101905061292d565b5050565b601f8211156129905761296181612830565b61296a84612845565b81016020851015612979578190505b61298d61298585612845565b83018261292c565b50505b505050565b600082821c905092915050565b60006129b360001984600802612995565b1980831691505092915050565b60006129cc83836129a2565b9150826002028217905092915050565b6129e582611bb4565b67ffffffffffffffff8111156129fe576129fd611eb1565b5b612a0882546121cb565b612a1382828561294f565b600060209050601f831160018114612a465760008415612a34578287015190505b612a3e85826129c0565b865550612aa6565b601f198416612a5486612830565b60005b82811015612a7c57848901518255600182019150602085019450602081019050612a57565b86831015612a995784890151612a95601f8916826129a2565b8355505b6001600288020188555050505b505050505050565b600081519050919050565b600082825260208201905092915050565b6000612ad582612aae565b612adf8185612ab9565b9350612aef818560208601611bd0565b612af881611bfa565b840191505092915050565b6000608082019050612b186000830187611cfb565b612b256020830186611cfb565b612b326040830185611e11565b8181036060830152612b448184612aca565b905095945050505050565b600081519050612b5e81611b25565b92915050565b600060208284031215612b7a57612b79611aef565b5b6000612b8884828501612b4f565b91505092915050565b7f4e487b7100000000000000000000000000000000000000000000000000000000600052601260045260246000fd5b7f4552433732313a206d696e7420746f20746865207a65726f2061646472657373600082015250565b6000612bf6602083611bbf565b9150612c0182612bc0565b602082019050919050565b60006020820190508181036000830152612c2581612be9565b9050919050565b7f4552433732313a20746f6b656e20616c7265616479206d696e74656400000000600082015250565b6000612c62601c83611bbf565b9150612c6d82612c2c565b602082019050919050565b60006020820190508181036000830152612c9181612c55565b905091905056fea26469706673582212204d8ae9f8eacaf759a312cee99770ec53ae0c77cacda3282b6bd37dba1c09e7d564736f6c63430008130033a264697066735822122086aadcb30ec61fa3bcf92f23a36e07e9b5d9c79adcc9ec4486d5acf2fdc3c27564736f6c63430008130033",
  "immutableReferences": {},
  "source": "// SPDX-License-Identifier: MIT\npragma solidity ^0.8.17;\n\nimport \"./Collection.sol\";\nimport \"./CollectionRegistryContext.sol\";\n\ncontract CollectionAggregator is CollectionRegistryContext {\n    event CollectionCreated(address indexed collection, string name, string symbol);\n    event TokenMinted(address indexed collection, address recipient, uint256 tokenId, string tokenUri);\n\n    constructor() {}\n\n    receive() external payable {\n        // ...\n    }\n\n    fallback() external payable {\n        // ...\n    }\n\n    function createCollection(string memory name, string memory symbol) public {\n        Collection collection = new Collection(address(this), name, symbol);\n        address collection_ = address(collection);\n        collectionRegistrySet(collection_);\n        emit CollectionCreated(collection_, name, symbol);\n        return;\n    }\n\n    function mint(address payable collection, address recipient, string memory tokenUri) public {\n        require(recipient != address(0), \"ERC721: address zero is not a valid recipient.\");\n        require(collectionRegistryIsExist(collection), \"Collection does not exist.\");\n        Collection collection_ = Collection(collection);\n        uint256 tokenId = collection_.mint(recipient, tokenUri);\n        emit TokenMinted(collection, recipient, tokenId, tokenUri);\n        return;\n    }\n}",
  "sourcePath": "/_task/source/contract/contracts/CollectionAggregator.sol",
  "compiler": {
    "name": "solc",
    "version": "0.8.19+commit.7dd6d404.Emscripten.clang"
  },
  "schemaVersion": "3.4.13",
  "updatedAt": "2023-04-25T14:42:02.457Z",
  "networkType": "ethereum",
  "devdoc": {
    "kind": "dev",
    "methods": {},
    "version": 1
  },
  "userdoc": {
    "kind": "user",
    "methods": {},
    "version": 1
  }
}